{
  "_format": "hh-sol-artifact-1",
  "contractName": "Facility",
  "sourceName": "contracts/Facility.sol",
  "abi": [
    {
      "inputs": [],
      "stateMutability": "nonpayable",
      "type": "constructor"
    },
    {
      "anonymous": false,
      "inputs": [
        {
          "indexed": false,
          "internalType": "address",
          "name": "previousAdmin",
          "type": "address"
        },
        {
          "indexed": false,
          "internalType": "address",
          "name": "newAdmin",
          "type": "address"
        }
      ],
      "name": "AdminChanged",
      "type": "event"
    },
    {
      "anonymous": false,
      "inputs": [
        {
          "indexed": true,
          "internalType": "address",
          "name": "_account",
          "type": "address"
        },
        {
          "indexed": false,
          "internalType": "uint256",
          "name": "_value",
          "type": "uint256"
        }
      ],
      "name": "AllocationClaimed",
      "type": "event"
    },
    {
      "anonymous": false,
      "inputs": [
        {
          "indexed": true,
          "internalType": "address",
          "name": "_account",
          "type": "address"
        },
        {
          "indexed": false,
          "internalType": "uint256",
          "name": "_value",
          "type": "uint256"
        }
      ],
      "name": "AllocationUpdated",
      "type": "event"
    },
    {
      "anonymous": false,
      "inputs": [
        {
          "indexed": true,
          "internalType": "address",
          "name": "beacon",
          "type": "address"
        }
      ],
      "name": "BeaconUpgraded",
      "type": "event"
    },
    {
      "anonymous": false,
      "inputs": [
        {
          "indexed": true,
          "internalType": "address",
          "name": "sender",
          "type": "address"
        },
        {
          "indexed": false,
          "internalType": "uint256",
          "name": "amount",
          "type": "uint256"
        }
      ],
      "name": "GasBudgetReceived",
      "type": "event"
    },
    {
      "anonymous": false,
      "inputs": [
        {
          "indexed": false,
          "internalType": "uint8",
          "name": "version",
          "type": "uint8"
        }
      ],
      "name": "Initialized",
      "type": "event"
    },
    {
      "anonymous": false,
      "inputs": [
        {
          "indexed": false,
          "internalType": "address",
          "name": "account",
          "type": "address"
        }
      ],
      "name": "Paused",
      "type": "event"
    },
    {
      "anonymous": false,
      "inputs": [
        {
          "indexed": true,
          "internalType": "address",
          "name": "_account",
          "type": "address"
        }
      ],
      "name": "RequestingUpdate",
      "type": "event"
    },
    {
      "anonymous": false,
      "inputs": [
        {
          "indexed": true,
          "internalType": "bytes32",
          "name": "role",
          "type": "bytes32"
        },
        {
          "indexed": true,
          "internalType": "bytes32",
          "name": "previousAdminRole",
          "type": "bytes32"
        },
        {
          "indexed": true,
          "internalType": "bytes32",
          "name": "newAdminRole",
          "type": "bytes32"
        }
      ],
      "name": "RoleAdminChanged",
      "type": "event"
    },
    {
      "anonymous": false,
      "inputs": [
        {
          "indexed": true,
          "internalType": "bytes32",
          "name": "role",
          "type": "bytes32"
        },
        {
          "indexed": true,
          "internalType": "address",
          "name": "account",
          "type": "address"
        },
        {
          "indexed": true,
          "internalType": "address",
          "name": "sender",
          "type": "address"
        }
      ],
      "name": "RoleGranted",
      "type": "event"
    },
    {
      "anonymous": false,
      "inputs": [
        {
          "indexed": true,
          "internalType": "bytes32",
          "name": "role",
          "type": "bytes32"
        },
        {
          "indexed": true,
          "internalType": "address",
          "name": "account",
          "type": "address"
        },
        {
          "indexed": true,
          "internalType": "address",
          "name": "sender",
          "type": "address"
        }
      ],
      "name": "RoleRevoked",
      "type": "event"
    },
    {
      "anonymous": false,
      "inputs": [
        {
          "indexed": false,
          "internalType": "address",
          "name": "account",
          "type": "address"
        }
      ],
      "name": "Unpaused",
      "type": "event"
    },
    {
      "anonymous": false,
      "inputs": [
        {
          "indexed": true,
          "internalType": "address",
          "name": "implementation",
          "type": "address"
        }
      ],
      "name": "Upgraded",
      "type": "event"
    },
    {
      "inputs": [],
      "name": "DEFAULT_ADMIN_ROLE",
      "outputs": [
        {
          "internalType": "bytes32",
          "name": "",
          "type": "bytes32"
        }
      ],
      "stateMutability": "view",
      "type": "function"
    },
    {
      "inputs": [],
      "name": "PAUSER_ROLE",
      "outputs": [
        {
          "internalType": "bytes32",
          "name": "",
          "type": "bytes32"
        }
      ],
      "stateMutability": "view",
      "type": "function"
    },
    {
      "inputs": [],
      "name": "UPGRADER_ROLE",
      "outputs": [
        {
          "internalType": "bytes32",
          "name": "",
          "type": "bytes32"
        }
      ],
      "stateMutability": "view",
      "type": "function"
    },
    {
      "inputs": [],
      "name": "VALIDATOR_ROLE",
      "outputs": [
        {
          "internalType": "bytes32",
          "name": "",
          "type": "bytes32"
        }
      ],
      "stateMutability": "view",
      "type": "function"
    },
    {
      "inputs": [],
      "name": "claimAllocation",
      "outputs": [],
      "stateMutability": "nonpayable",
      "type": "function"
    },
    {
      "inputs": [
        {
          "internalType": "address",
          "name": "",
          "type": "address"
        }
      ],
      "name": "gasAvailable",
      "outputs": [
        {
          "internalType": "uint256",
          "name": "",
          "type": "uint256"
        }
      ],
      "stateMutability": "view",
      "type": "function"
    },
    {
      "inputs": [
        {
          "internalType": "address",
          "name": "",
          "type": "address"
        }
      ],
      "name": "gasUsed",
      "outputs": [
        {
          "internalType": "uint256",
          "name": "",
          "type": "uint256"
        }
      ],
      "stateMutability": "view",
      "type": "function"
    },
    {
      "inputs": [
        {
          "internalType": "bytes32",
          "name": "role",
          "type": "bytes32"
        }
      ],
      "name": "getRoleAdmin",
      "outputs": [
        {
          "internalType": "bytes32",
          "name": "",
          "type": "bytes32"
        }
      ],
      "stateMutability": "view",
      "type": "function"
    },
    {
      "inputs": [
        {
          "internalType": "bytes32",
          "name": "role",
          "type": "bytes32"
        },
        {
          "internalType": "address",
          "name": "account",
          "type": "address"
        }
      ],
      "name": "grantRole",
      "outputs": [],
      "stateMutability": "nonpayable",
      "type": "function"
    },
    {
      "inputs": [
        {
          "internalType": "bytes32",
          "name": "role",
          "type": "bytes32"
        },
        {
          "internalType": "address",
          "name": "account",
          "type": "address"
        }
      ],
      "name": "hasRole",
      "outputs": [
        {
          "internalType": "bool",
          "name": "",
          "type": "bool"
        }
      ],
      "stateMutability": "view",
      "type": "function"
    },
    {
      "inputs": [
        {
          "internalType": "address",
          "name": "_tokenContract",
          "type": "address"
        }
      ],
      "name": "initialize",
      "outputs": [],
      "stateMutability": "nonpayable",
      "type": "function"
    },
    {
      "inputs": [],
      "name": "pause",
      "outputs": [],
      "stateMutability": "nonpayable",
      "type": "function"
    },
    {
      "inputs": [],
      "name": "paused",
      "outputs": [
        {
          "internalType": "bool",
          "name": "",
          "type": "bool"
        }
      ],
      "stateMutability": "view",
      "type": "function"
    },
    {
      "inputs": [],
      "name": "proxiableUUID",
      "outputs": [
        {
          "internalType": "bytes32",
          "name": "",
          "type": "bytes32"
        }
      ],
      "stateMutability": "view",
      "type": "function"
    },
    {
      "inputs": [
        {
          "internalType": "bytes32",
          "name": "role",
          "type": "bytes32"
        },
        {
          "internalType": "address",
          "name": "account",
          "type": "address"
        }
      ],
      "name": "renounceRole",
      "outputs": [],
      "stateMutability": "nonpayable",
      "type": "function"
    },
    {
      "inputs": [],
      "name": "requestUpdate",
      "outputs": [],
      "stateMutability": "nonpayable",
      "type": "function"
    },
    {
      "inputs": [
        {
          "internalType": "bytes32",
          "name": "role",
          "type": "bytes32"
        },
        {
          "internalType": "address",
          "name": "account",
          "type": "address"
        }
      ],
      "name": "revokeRole",
      "outputs": [],
      "stateMutability": "nonpayable",
      "type": "function"
    },
    {
      "inputs": [
        {
          "internalType": "bytes4",
          "name": "interfaceId",
          "type": "bytes4"
        }
      ],
      "name": "supportsInterface",
      "outputs": [
        {
          "internalType": "bool",
          "name": "",
          "type": "bool"
        }
      ],
      "stateMutability": "view",
      "type": "function"
    },
    {
      "inputs": [
        {
          "internalType": "address",
          "name": "",
          "type": "address"
        }
      ],
      "name": "tokenAllocation",
      "outputs": [
        {
          "internalType": "uint256",
          "name": "",
          "type": "uint256"
        }
      ],
      "stateMutability": "view",
      "type": "function"
    },
    {
      "inputs": [
        {
          "internalType": "address",
          "name": "",
          "type": "address"
        }
      ],
      "name": "tokenClaimed",
      "outputs": [
        {
          "internalType": "uint256",
          "name": "",
          "type": "uint256"
        }
      ],
      "stateMutability": "view",
      "type": "function"
    },
    {
      "inputs": [],
      "name": "tokenContract",
      "outputs": [
        {
          "internalType": "address",
          "name": "",
          "type": "address"
        }
      ],
      "stateMutability": "view",
      "type": "function"
    },
    {
      "inputs": [],
      "name": "unpause",
      "outputs": [],
      "stateMutability": "nonpayable",
      "type": "function"
    },
    {
      "inputs": [
        {
          "internalType": "address",
          "name": "_account",
          "type": "address"
        },
        {
          "internalType": "uint256",
          "name": "_value",
          "type": "uint256"
        }
      ],
      "name": "updateAllocation",
      "outputs": [],
      "stateMutability": "nonpayable",
      "type": "function"
    },
    {
      "inputs": [
        {
          "internalType": "address",
          "name": "newImplementation",
          "type": "address"
        }
      ],
      "name": "upgradeTo",
      "outputs": [],
      "stateMutability": "nonpayable",
      "type": "function"
    },
    {
      "inputs": [
        {
          "internalType": "address",
          "name": "newImplementation",
          "type": "address"
        },
        {
          "internalType": "bytes",
          "name": "data",
          "type": "bytes"
        }
      ],
      "name": "upgradeToAndCall",
      "outputs": [],
      "stateMutability": "payable",
      "type": "function"
    },
    {
      "stateMutability": "payable",
      "type": "receive"
    }
  ],
  "bytecode": "0x60a06040523060805234801561001457600080fd5b5061001d610022565b6100e1565b600054610100900460ff161561008e5760405162461bcd60e51b815260206004820152602760248201527f496e697469616c697a61626c653a20636f6e747261637420697320696e697469604482015266616c697a696e6760c81b606482015260840160405180910390fd5b60005460ff908116146100df576000805460ff191660ff9081179091556040519081527f7f26b83ff96e1f2b6a682f133852f6798a09c465da95921460cefb38474024989060200160405180910390a15b565b608051611e2b6101186000396000818161063701528181610677015281816107360152818161077601526108050152611e2b6000f3fe60806040526004361061016a5760003560e01c80635c975abb116100d1578063c49baebe1161008a578063d2d1fb2511610064578063d2d1fb25146104be578063d547741f146104d3578063e63ab1e9146104f3578063f72c0d8b1461051557600080fd5b8063c49baebe1461043c578063c4d66de814610470578063c818478c1461049057600080fd5b80635c975abb146103a557806370851703146103bd5780638456cb59146103dd57806391d14854146103f25780639c312cfd14610412578063a217fddf1461042757600080fd5b80633f4ba83a116101235780633f4ba83a146102d3578063440e1e69146102e85780634959ce17146103165780634f1ef2861461034457806352d1902d1461035757806355a373d61461036c57600080fd5b806301ffc9a7146101d0578063101aa31214610205578063248a9ca3146102415780632f2ff15d1461027157806336568abe146102935780633659cfe6146102b357600080fd5b366101cb5733600090815261012e60205260408120805434929061018f908490611976565b909155505060405134815233907f1b7b1c997c7500479bab726dfec79523bc2ba8f0d872c298df8e8567ec33478d9060200160405180910390a2005b600080fd5b3480156101dc57600080fd5b506101f06101eb366004611989565b610549565b60405190151581526020015b60405180910390f35b34801561021157600080fd5b506102336102203660046119cf565b6101316020526000908152604090205481565b6040519081526020016101fc565b34801561024d57600080fd5b5061023361025c3660046119ea565b60009081526097602052604090206001015490565b34801561027d57600080fd5b5061029161028c366004611a03565b610580565b005b34801561029f57600080fd5b506102916102ae366004611a03565b6105aa565b3480156102bf57600080fd5b506102916102ce3660046119cf565b61062d565b3480156102df57600080fd5b5061029161070c565b3480156102f457600080fd5b506102336103033660046119cf565b6101306020526000908152604090205481565b34801561032257600080fd5b506102336103313660046119cf565b61012f6020526000908152604090205481565b610291610352366004611a45565b61072c565b34801561036357600080fd5b506102336107f8565b34801561037857600080fd5b5061012d5461038d906001600160a01b031681565b6040516001600160a01b0390911681526020016101fc565b3480156103b157600080fd5b5060335460ff166101f0565b3480156103c957600080fd5b506102916103d8366004611b07565b6108ab565b3480156103e957600080fd5b506102916109cd565b3480156103fe57600080fd5b506101f061040d366004611a03565b6109ed565b34801561041e57600080fd5b50610291610a18565b34801561043357600080fd5b50610233600081565b34801561044857600080fd5b506102337f21702c8af46127c7fa207f89d0b0a8441bb32959a0ac7df790e9ab1a25c9892681565b34801561047c57600080fd5b5061029161048b3660046119cf565b610b95565b34801561049c57600080fd5b506102336104ab3660046119cf565b61012e6020526000908152604090205481565b3480156104ca57600080fd5b50610291610d49565b3480156104df57600080fd5b506102916104ee366004611a03565b6110ae565b3480156104ff57600080fd5b50610233600080516020611daf83398151915281565b34801561052157600080fd5b506102337f189ab7a9244df0848122154315af71fe140f3db0fe014031783b0946b8c9d2e381565b60006001600160e01b03198216637965db0b60e01b148061057a57506301ffc9a760e01b6001600160e01b03198316145b92915050565b60008281526097602052604090206001015461059b816110d3565b6105a583836110dd565b505050565b6001600160a01b038116331461061f5760405162461bcd60e51b815260206004820152602f60248201527f416363657373436f6e74726f6c3a2063616e206f6e6c792072656e6f756e636560448201526e103937b632b9903337b91039b2b63360891b60648201526084015b60405180910390fd5b6106298282611163565b5050565b6001600160a01b037f00000000000000000000000000000000000000000000000000000000000000001630036106755760405162461bcd60e51b815260040161061690611b31565b7f00000000000000000000000000000000000000000000000000000000000000006001600160a01b03166106be600080516020611d8f833981519152546001600160a01b031690565b6001600160a01b0316146106e45760405162461bcd60e51b815260040161061690611b7d565b6106ed816111ca565b60408051600080825260208201909252610709918391906111f4565b50565b600080516020611daf833981519152610724816110d3565b61070961135f565b6001600160a01b037f00000000000000000000000000000000000000000000000000000000000000001630036107745760405162461bcd60e51b815260040161061690611b31565b7f00000000000000000000000000000000000000000000000000000000000000006001600160a01b03166107bd600080516020611d8f833981519152546001600160a01b031690565b6001600160a01b0316146107e35760405162461bcd60e51b815260040161061690611b7d565b6107ec826111ca565b610629828260016111f4565b6000306001600160a01b037f000000000000000000000000000000000000000000000000000000000000000016146108985760405162461bcd60e51b815260206004820152603860248201527f555550535570677261646561626c653a206d757374206e6f742062652063616c60448201527f6c6564207468726f7567682064656c656761746563616c6c00000000000000006064820152608401610616565b50600080516020611d8f83398151915290565b6108b36113b1565b7f21702c8af46127c7fa207f89d0b0a8441bb32959a0ac7df790e9ab1a25c989266108dd816110d3565b60005a90506001600160a01b03841661094a5760405162461bcd60e51b815260206004820152602960248201527f466163696c6974793a2063616e27742075706461746520616c6c6f636174696f60448201526806e20666f72203078360bc1b6064820152608401610616565b6001600160a01b03841660009081526101306020908152604080832086905533835261012f90915281208054839290610984908490611976565b90915550506040518381526001600160a01b038516907f183f2ce0b749ed46549cb16586af0c501abab8d242cc4b2076aec30d2dd9c4bc9060200160405180910390a250505050565b600080516020611daf8339815191526109e5816110d3565b6107096113f9565b60009182526097602090815260408084206001600160a01b0393909316845291905290205460ff1690565b610a206113b1565b60005a33600090815261012e602090815260408083205461012f9092529091205491925090808211610acb5760405162461bcd60e51b815260206004820152604860248201527f466163696c6974793a20726571756972657320757365722070726f766964656460448201527f206761732062756467657420746f2063726561746520616c6c6f636174696f6e606482015267207570646174657360c01b608482015260a401610616565b82610ad68284611bc9565b1015610b655760405162461bcd60e51b815260206004820152605260248201527f466163696c6974793a20757365722070726f766964656420627564676574206960448201527f73206465706c657465642c2073656e642045544820746f20636f6e7472616374606482015271081859191c995cdcc81d1bc81c99599a5b1b60721b608482015260a401610616565b60405133907fd64f8dd6d2d31b58db35193816647db9f02c0ca1de29379c2d02d0aa46d2fa6590600090a2505050565b600054610100900460ff1615808015610bb55750600054600160ff909116105b80610bcf5750303b158015610bcf575060005460ff166001145b610c325760405162461bcd60e51b815260206004820152602e60248201527f496e697469616c697a61626c653a20636f6e747261637420697320616c72656160448201526d191e481a5b9a5d1a585b1a5e995960921b6064820152608401610616565b6000805460ff191660011790558015610c55576000805461ff0019166101001790555b61012d80546001600160a01b0319166001600160a01b038416179055610c79611436565b610c81611465565b610c89611465565b610c946000336110dd565b610cac600080516020611daf833981519152336110dd565b610cd67f189ab7a9244df0848122154315af71fe140f3db0fe014031783b0946b8c9d2e3336110dd565b610d007f21702c8af46127c7fa207f89d0b0a8441bb32959a0ac7df790e9ab1a25c98926336110dd565b8015610629576000805461ff0019169055604051600181527f7f26b83ff96e1f2b6a682f133852f6798a09c465da95921460cefb38474024989060200160405180910390a15050565b610d516113b1565b3380610db05760405162461bcd60e51b815260206004820152602860248201527f466163696c6974793a2063616e277420636c61696d20616c6c6f636174696f6e604482015267020666f72203078360c41b6064820152608401610616565b6001600160a01b0381166000908152610130602052604090205480610e285760405162461bcd60e51b815260206004820152602860248201527f466163696c6974793a206e6f20746f6b656e7320616c6c6f636174656420666f604482015267391039b2b73232b960c11b6064820152608401610616565b6001600160a01b03821660009081526101316020526040902054808211610ea05760405162461bcd60e51b815260206004820152602660248201527f466163696c6974793a206e6f20746f6b656e7320617661696c61626c6520746f60448201526520636c61696d60d01b6064820152608401610616565b61012d546040516370a0823160e01b81523060048201526001600160a01b039091169060009082906370a0823190602401602060405180830381865afa158015610eee573d6000803e3d6000fd5b505050506040513d601f19601f82011682018060405250810190610f129190611bdc565b90506000610f208486611bc9565b9050808211610f7d5760405162461bcd60e51b8152602060048201526024808201527f466163696c6974793a206e6f7420656e6f75676820746f6b656e7320746f20636044820152636c61696d60e01b6064820152608401610616565b60405163a9059cbb60e01b8152336004820152602481018290526001600160a01b0384169063a9059cbb906044016020604051808303816000875af1158015610fca573d6000803e3d6000fd5b505050506040513d601f19601f82011682018060405250810190610fee9190611bf5565b6110505760405162461bcd60e51b815260206004820152602d60248201527f466163696c6974793a207472616e73666572206f6620636c61696d61626c652060448201526c1d1bdad95b9cc819985a5b1959609a1b6064820152608401610616565b6001600160a01b0386166000818152610131602052604090819020879055517f1747857504b94e5be51b1fe4b467e5d2daa63a0d21577089a13fa99f9414dcc89061109e9084815260200190565b60405180910390a2505050505050565b6000828152609760205260409020600101546110c9816110d3565b6105a58383611163565b610709813361148c565b6110e782826109ed565b6106295760008281526097602090815260408083206001600160a01b03851684529091529020805460ff1916600117905561111f3390565b6001600160a01b0316816001600160a01b0316837f2f8788117e7eff1d82e926ec794901d17c78024a50270940304540a733656f0d60405160405180910390a45050565b61116d82826109ed565b156106295760008281526097602090815260408083206001600160a01b0385168085529252808320805460ff1916905551339285917ff6391f5c32d9c69d2a47ea670b442974b53935d1edc7fd64eb21e047a839171b9190a45050565b7f189ab7a9244df0848122154315af71fe140f3db0fe014031783b0946b8c9d2e3610629816110d3565b7f4910fdfa16fed3260ed0e7147f7cc6da11a60208b5b9406d12a635614ffd91435460ff1615611227576105a5836114e5565b826001600160a01b03166352d1902d6040518163ffffffff1660e01b8152600401602060405180830381865afa925050508015611281575060408051601f3d908101601f1916820190925261127e91810190611bdc565b60015b6112e45760405162461bcd60e51b815260206004820152602e60248201527f45524331393637557067726164653a206e657720696d706c656d656e7461746960448201526d6f6e206973206e6f74205555505360901b6064820152608401610616565b600080516020611d8f83398151915281146113535760405162461bcd60e51b815260206004820152602960248201527f45524331393637557067726164653a20756e737570706f727465642070726f786044820152681a58589b195555525160ba1b6064820152608401610616565b506105a5838383611581565b6113676115ac565b6033805460ff191690557f5db9ee0a495bf2e6ff9c91a7834c1ba4fdd244a5e8aa4e537bd38aeae4b073aa335b6040516001600160a01b03909116815260200160405180910390a1565b60335460ff16156113f75760405162461bcd60e51b815260206004820152601060248201526f14185d5cd8589b194e881c185d5cd95960821b6044820152606401610616565b565b6114016113b1565b6033805460ff191660011790557f62e78cea01bee320cd4e420270b5ea74000d11b0c9f74754ebdbfc544b05a2586113943390565b600054610100900460ff1661145d5760405162461bcd60e51b815260040161061690611c17565b6113f76115f5565b600054610100900460ff166113f75760405162461bcd60e51b815260040161061690611c17565b61149682826109ed565b610629576114a381611628565b6114ae83602061163a565b6040516020016114bf929190611c86565b60408051601f198184030181529082905262461bcd60e51b825261061691600401611cfb565b6001600160a01b0381163b6115525760405162461bcd60e51b815260206004820152602d60248201527f455243313936373a206e657720696d706c656d656e746174696f6e206973206e60448201526c1bdd08184818dbdb9d1c9858dd609a1b6064820152608401610616565b600080516020611d8f83398151915280546001600160a01b0319166001600160a01b0392909216919091179055565b61158a836117dd565b6000825111806115975750805b156105a5576115a6838361181d565b50505050565b60335460ff166113f75760405162461bcd60e51b815260206004820152601460248201527314185d5cd8589b194e881b9bdd081c185d5cd95960621b6044820152606401610616565b600054610100900460ff1661161c5760405162461bcd60e51b815260040161061690611c17565b6033805460ff19169055565b606061057a6001600160a01b03831660145b60606000611649836002611d2e565b611654906002611976565b67ffffffffffffffff81111561166c5761166c611a2f565b6040519080825280601f01601f191660200182016040528015611696576020820181803683370190505b509050600360fc1b816000815181106116b1576116b1611d45565b60200101906001600160f81b031916908160001a905350600f60fb1b816001815181106116e0576116e0611d45565b60200101906001600160f81b031916908160001a9053506000611704846002611d2e565b61170f906001611976565b90505b6001811115611787576f181899199a1a9b1b9c1cb0b131b232b360811b85600f166010811061174357611743611d45565b1a60f81b82828151811061175957611759611d45565b60200101906001600160f81b031916908160001a90535060049490941c9361178081611d5b565b9050611712565b5083156117d65760405162461bcd60e51b815260206004820181905260248201527f537472696e67733a20686578206c656e67746820696e73756666696369656e746044820152606401610616565b9392505050565b6117e6816114e5565b6040516001600160a01b038216907fbc7cd75a20ee27fd9adebab32041f755214dbc6bffa90cc0225b39da2e5c2d3b90600090a250565b60606117d68383604051806060016040528060278152602001611dcf602791396060600080856001600160a01b03168560405161185a9190611d72565b600060405180830381855af49150503d8060008114611895576040519150601f19603f3d011682016040523d82523d6000602084013e61189a565b606091505b50915091506118ab868383876118b5565b9695505050505050565b6060831561192457825160000361191d576001600160a01b0385163b61191d5760405162461bcd60e51b815260206004820152601d60248201527f416464726573733a2063616c6c20746f206e6f6e2d636f6e74726163740000006044820152606401610616565b508161192e565b61192e8383611936565b949350505050565b8151156119465781518083602001fd5b8060405162461bcd60e51b81526004016106169190611cfb565b634e487b7160e01b600052601160045260246000fd5b8082018082111561057a5761057a611960565b60006020828403121561199b57600080fd5b81356001600160e01b0319811681146117d657600080fd5b80356001600160a01b03811681146119ca57600080fd5b919050565b6000602082840312156119e157600080fd5b6117d6826119b3565b6000602082840312156119fc57600080fd5b5035919050565b60008060408385031215611a1657600080fd5b82359150611a26602084016119b3565b90509250929050565b634e487b7160e01b600052604160045260246000fd5b60008060408385031215611a5857600080fd5b611a61836119b3565b9150602083013567ffffffffffffffff80821115611a7e57600080fd5b818501915085601f830112611a9257600080fd5b813581811115611aa457611aa4611a2f565b604051601f8201601f19908116603f01168101908382118183101715611acc57611acc611a2f565b81604052828152886020848701011115611ae557600080fd5b8260208601602083013760006020848301015280955050505050509250929050565b60008060408385031215611b1a57600080fd5b611b23836119b3565b946020939093013593505050565b6020808252602c908201527f46756e6374696f6e206d7573742062652063616c6c6564207468726f7567682060408201526b19195b1959d85d1958d85b1b60a21b606082015260800190565b6020808252602c908201527f46756e6374696f6e206d7573742062652063616c6c6564207468726f7567682060408201526b6163746976652070726f787960a01b606082015260800190565b8181038181111561057a5761057a611960565b600060208284031215611bee57600080fd5b5051919050565b600060208284031215611c0757600080fd5b815180151581146117d657600080fd5b6020808252602b908201527f496e697469616c697a61626c653a20636f6e7472616374206973206e6f74206960408201526a6e697469616c697a696e6760a81b606082015260800190565b60005b83811015611c7d578181015183820152602001611c65565b50506000910152565b7f416363657373436f6e74726f6c3a206163636f756e7420000000000000000000815260008351611cbe816017850160208801611c62565b7001034b99036b4b9b9b4b733903937b6329607d1b6017918401918201528351611cef816028840160208801611c62565b01602801949350505050565b6020815260008251806020840152611d1a816040850160208701611c62565b601f01601f19169190910160400192915050565b808202811582820484141761057a5761057a611960565b634e487b7160e01b600052603260045260246000fd5b600081611d6a57611d6a611960565b506000190190565b60008251611d84818460208701611c62565b919091019291505056fe360894a13ba1a3210667c828492db98dca3e2076cc3735a920a3ca505d382bbc65d7a28e3265b37a6474929f336521b332c1681b933f6cb9f3376673440d862a416464726573733a206c6f772d6c6576656c2064656c65676174652063616c6c206661696c6564a2646970667358221220490325f7d919f07da106b4511a4b28a02d2dd26778482f3665a3328d41d078c164736f6c63430008130033",
  "linkReferences": {},
  "deployedLinkReferences": {}
}